:100000000C9431000C944E000C944E000C944E0055
:100010000C944E000C94D6020C944E000C944E009E
:100020000C944E000C94AD020C944E000C9484027F
:100030000C944E000C944E000C944E000C944E0008
:100040000C944E000C944E000C944E000C944E00F8
:100050000C944E00350239023D023D02410241023C
:10006000450211241FBECFE5D8E0DEBFCDBF10E0B2
:10007000A0E6B0E0E2EEF8E002C005900D92A436F2
:10008000B107D9F720E0A4E6B0E001C01D92A63880
:10009000B207E1F70E9464000C946F040C94000016
:1000A00061E080E00E941701089562E080E00E9414
:1000B0001701089564E080E00E941701089568E048
:1000C00080E00E9417010895CF93DF93CDB7DEB78C
:1000D00067970FB6F894DEBF0FBECDBF8FB78068AD
:1000E0008FBF8FEF8B8319828A83CE0101960E9486
:1000F000BA000E9414031D8211E01E8380E590E087
:1001000098878F831C82CE0104960E9443031A862F
:1001100082E08B8785E590E09D878C871986CE01EC
:1001200009960E94430386E98F8783E0888B8AE5DE
:1001300090E09A8B898B1E86CE010E960E94430317
:100140001C8A1D8B8FE590E09F8B8E8B1B8ACE01C6
:1001500043960E9443038FE590E00E94A6030E940D
:100160003501DF9A0E94F303DF9880E090E00E945F
:100170003A01F7CFFC01892B09F44FC0808181300F
:10018000C1F028F0823039F18330B1F148C03281BA
:10019000332341F03F3F09F044C02AB39181922BB1
:1001A0009ABB08952AB39181909592239ABB832F8D
:1001B00008953281332341F03F3FC1F597B38181E8
:1001C000892B87BB80E0089527B391819095922376
:1001D00097BB832F08958281882341F08F3F19F5C3
:1001E00094B38181892B84BB80E0089524B39181ED
:1001F0009095922394BB08958281882341F08F3F8C
:10020000A1F49AB38181892B8ABB80E0089524B33D
:1002100091819095922394BB089581E0089581E0A7
:10022000089581E0089581E0089581E00895813086
:1002300059F028F0823069F0833081F014C08BB31C
:1002400068276BBB80E0089588B3682768BB80E0AF
:10025000089585B3682765BB80E0089582B3682759
:1002600062BB80E0089581E0089585B7806885BF0E
:1002700080E008958230A1F028F4882351F0813085
:1002800059F020C08630A1F08730B1F08330D1F42E
:100290000BC085B785BF13C085B7816085BF0FC010
:1002A00085B7826085BF0BC085B7836085BF07C0F7
:1002B00085B7866085BF03C085B7876085BF889591
:1002C00080E0089581E00895DC018C91813009F48B
:1002D00051C020F0823009F4ADC0E7C014962D91D2
:1002E0003C911597309369002093680011969C917A
:1002F0001197913041F118F0923049F1D8C013961E
:100300009C911397943099F028F4913041F09230F9
:1003100051F0CFC0963079F0973089F0CAC091E0A3
:1003200090936D0017C092E090936D0013C093E01E
:1003300090936D000FC094E090936D000BC095E01A
:1003400090936D0007C097E090936D0003C096E016
:1003500090936D0012969C91992319F0913031F091
:10036000AAC089B78E7F89BF892F089599B79160F8
:1003700099BF089514962D913C911597309367007D
:100380002093660011969C9111979130B9F118F065
:100390009230D9F1089513969C9113979430C9F037
:1003A00028F4913041F0923069F008959630C1F010
:1003B0009730E9F0089521E030E030936C0020930D
:1003C0006B0029C022E030E030936C0020936B007A
:1003D00022C023E030E030936C0020936B001BC000
:1003E00024E030E030936C0020936B0014C025E0D3
:1003F00030E030936C0020936B000DC027E030E0BC
:1004000030936C0020936B0006C026E030E0309300
:100410006C0020936B0012969C91992319F09130F7
:1004200021F0089519BE892F089589B7846089BF86
:1004300080E0089514968D919C9115979093650096
:100440008093640011968C911197811121C01396AD
:10045000EC9113974E2F50E0FA013197E730F105F8
:1004600060F5E65DFF4F0C94690481E080936A00BB
:100470000FC082E080936A000BC084E080936A0022
:1004800007C086E080936A0003C087E080936A001B
:1004900012968C91882319F0813019F010C019BE82
:1004A000089580E489BF80E0089580E0089581E0A8
:1004B000089581E0089581E0089581E0089581E044
:1004C0000895813059F018F08230A9F01BC0619571
:1004D00062BF80916D0083BF80E008957195619542
:1004E00071097DBD6CBD80916B0090916C009FBDCA
:1004F0008EBD80E00895619564BD80916A0085BDE0
:1005000080E0089581E008951F920F920FB60F9238
:1005100011242F933F934F935F936F937F938F9308
:100520009F93AF93BF93EF93FF93E0916800F09197
:100530006900309709F00995FF91EF91BF91AF9154
:100540009F918F917F916F915F914F913F912F91EB
:100550000F900FBE0F901F9018951F920F920FB61D
:100560000F9211242F933F934F935F936F937F9339
:100570008F939F93AF93BF93EF93FF93E0916600A8
:10058000F0916700309709F00995FF91EF91BF91C5
:10059000AF919F918F917F916F915F914F913F911B
:1005A0002F910F900FBE0F901F9018951F920F92D2
:1005B0000FB60F9211242F933F934F935F936F9336
:1005C0007F938F939F93AF93BF93EF93FF93E091AC
:1005D0006400F0916500309709F00995FF91EF9163
:1005E000BF91AF919F918F917F916F915F914F914B
:1005F0003F912F910F900FBE0F901F9018958091F3
:100600007000811110C081E080937000E0E6F0E09E
:100610006181728162957295707F7627607F7627FF
:1006200080810E94610208951F93CF93DF9300D0D1
:1006300000D000D0CDB7DEB780916E00811114C01C
:100640008FEF92E09E838D838091600089831A8270
:1006500011E01B8387E08C83CE0101960E94640128
:1006600010936E0080E005C0813011F48DEF01C061
:1006700080E026960FB6F894DEBF0FBECDBFDF91A7
:10068000CF911F910895CF93DF93FC0190916E005D
:10069000913009F048C0EF0190917100911125C08F
:1006A00080916000833008F048C0811109C020911A
:1006B0006100309162002131310508F040C009C06D
:1006C000813039F42091610030916200213630414F
:1006D000C0F5609161007091620062957295707FC3
:1006E0007627607F76270E94610290917100943096
:1006F000F0F480E02B813C81232BD9F0292F30E0CE
:10070000D901AA0FBB1FAA0FBB1FA20FB31FAE5860
:10071000BF4F25E0FE0101900D922A95E1F79F5F02
:100720009093710010C0911106C08EEF0CC080E054
:100730000AC08CEF08C080E006C08FEFDBCF8AEFE5
:10074000D9CF8AEFD7CFDF91CF910895BC018091A7
:100750006E00813009F041C06115710509F43FC098
:1007600010926F00409171004423D9F190E0292F3D
:1007700030E0F901EE0FFF1FEE0FFF1FE20FF31F36
:10078000EE58FF4F0380F481E02D6E177F07E1F4F0
:10079000D901AA0FBB1FAA0FBB1FA20FB31FAE58D0
:1007A000BF4F242F30E0F901EE0FFF1FEE0FFF1FA8
:1007B000E20FF31FEE58FF4F85E001900D928A95EE
:1007C000E1F74150409371009F5F90936F0040911B
:1007D0007100941760F280E0089580E008958CEF36
:1007E000089580E00895CF93DF9380916E0081306B
:1007F00009F068C080917000813009F065C01092E6
:100800006F0080E0C0E0DCEF90E0FC01EE0FFF1F26
:10081000EE0FFF1FE80FF91FEE58FF4F21812F5FEA
:1008200021833281231341C0FC01EE0FFF1FEE0F25
:10083000FF1F8E0F9F1FFC01EE58FF4F0380F481B6
:10084000E02D309711F0099501C0CD2F80916F00F8
:1008500090E0FC01EE0FFF1FEE0FFF1FE80FF91FE6
:10086000EE58FF4F208121110CC0FC01EE0FFF1F3D
:10087000EE0FFF1F8E0F9F1FFC01EE58FF4F1182DE
:1008800014C0213091F4FC01EE0FFF1FEE0FFF1F8B
:100890008E0F9F1FFC01EE58FF4F838194810097BC
:1008A00019F00E94A60301C0CD2F80916F008F5FC9
:1008B00080936F0090917100981708F0A5CF109267
:1008C000700003C0CEEF01C0C0E08C2FDF91CF914C
:1008D0000895EE0FFF1F0590F491E02D0994F89410
:0208E000FFCF48
:0408E200020100000F
:00000001FF
